{
  "contractName": "IdentityProtocol",
  "abi": [
    {
      "constant": false,
      "inputs": [
        {
          "name": "identityId",
          "type": "bytes"
        },
        {
          "name": "_identityData",
          "type": "bytes"
        }
      ],
      "name": "createPersonalIdentity",
      "outputs": [
        {
          "name": "",
          "type": "bool"
        }
      ],
      "payable": false,
      "stateMutability": "nonpayable",
      "type": "function"
    },
    {
      "constant": true,
      "inputs": [
        {
          "name": "identityId",
          "type": "bytes"
        }
      ],
      "name": "getIdentity",
      "outputs": [
        {
          "name": "identity",
          "type": "address"
        }
      ],
      "payable": false,
      "stateMutability": "view",
      "type": "function"
    },
    {
      "constant": false,
      "inputs": [
        {
          "name": "identityId",
          "type": "bytes"
        },
        {
          "name": "_identityData",
          "type": "bytes"
        },
        {
          "name": "_owners",
          "type": "address[]"
        },
        {
          "name": "_required",
          "type": "int256"
        }
      ],
      "name": "createMultiSigIdentity",
      "outputs": [
        {
          "name": "",
          "type": "bool"
        }
      ],
      "payable": false,
      "stateMutability": "nonpayable",
      "type": "function"
    },
    {
      "anonymous": false,
      "inputs": [
        {
          "indexed": false,
          "name": "creator",
          "type": "address"
        },
        {
          "indexed": false,
          "name": "identity",
          "type": "address"
        },
        {
          "indexed": false,
          "name": "identityType",
          "type": "uint8"
        },
        {
          "indexed": false,
          "name": "timestamp",
          "type": "uint256"
        }
      ],
      "name": "IdentityCreated",
      "type": "event"
    }
  ],
  "bytecode": "0x6060604052341561000f57600080fd5b612a9e8061001e6000396000f300606060405260043610610057576000357c0100000000000000000000000000000000000000000000000000000000900463ffffffff16806370fc879d1461005c578063aa5a6e1214610114578063d47dba0e146101b1575b600080fd5b341561006757600080fd5b6100fa600480803590602001908201803590602001908080601f0160208091040260200160405190810160405280939291908181526020018383808284378201915050505050509190803590602001908201803590602001908080601f016020809104026020016040519081016040528093929190818152602001838380828437820191505050505050919050506102b2565b604051808215151515815260200191505060405180910390f35b341561011f57600080fd5b61016f600480803590602001908201803590602001908080601f01602080910402602001604051908101604052809392919081815260200183838082843782019150505050505091905050610417565b604051808273ffffffffffffffffffffffffffffffffffffffff1673ffffffffffffffffffffffffffffffffffffffff16815260200191505060405180910390f35b34156101bc57600080fd5b610298600480803590602001908201803590602001908080601f0160208091040260200160405190810160405280939291908181526020018383808284378201915050505050509190803590602001908201803590602001908080601f0160208091040260200160405190810160405280939291908181526020018383808284378201915050505050509190803590602001908201803590602001908080602002602001604051908101604052809392919081815260200183836020028082843782019150505050505091908035906020019091905050610530565b604051808215151515815260200191505060405180910390f35b600080836002816040518082805190602001908083835b6020831015156102ee57805182526020820191506020810190506020830392506102c9565b6001836020036101000a038019825116818451168082178552505050505050905001915050908152602001604051809103902060009054906101000a900460ff1615151561033b57600080fd5b338461034561095c565b808373ffffffffffffffffffffffffffffffffffffffff1673ffffffffffffffffffffffffffffffffffffffff16815260200180602001828103825283818151815260200191508051906020019080838360005b838110156103b4578082015181840152602081019050610399565b50505050905090810190601f1680156103e15780820380516001836020036101000a031916815260200191505b509350505050604051809103906000f08015156103fd57600080fd5b915061040b858360006106b4565b60019250505092915050565b60006002826040518082805190602001908083835b602083101515610451578051825260208201915060208101905060208303925061042c565b6001836020036101000a038019825116818451168082178552505050505050905001915050908152602001604051809103902060009054906101000a900460ff16151561049d57600080fd5b6000826040518082805190602001908083835b6020831015156104d557805182526020820191506020810190506020830392506104b0565b6001836020036101000a038019825116818451168082178552505050505050905001915050908152602001604051809103902060009054906101000a900473ffffffffffffffffffffffffffffffffffffffff169050919050565b600080856002816040518082805190602001908083835b60208310151561056c5780518252602082019150602081019050602083039250610547565b6001836020036101000a038019825116818451168082178552505050505050905001915050908152602001604051809103902060009054906101000a900460ff161515156105b957600080fd5b8585856105c461096c565b808060200180602001848152602001838103835286818151815260200191508051906020019080838360005b8381101561060b5780820151818401526020810190506105f0565b50505050905090810190601f1680156106385780820380516001836020036101000a031916815260200191505b50838103825285818151815260200191508051906020019060200280838360005b83811015610674578082015181840152602081019050610659565b5050505090500195505050505050604051809103906000f080151561069857600080fd5b91506106a6878360016106b4565b600192505050949350505050565b816000846040518082805190602001908083835b6020831015156106ed57805182526020820191506020810190506020830392506106c8565b6001836020036101000a038019825116818451168082178552505050505050905001915050908152602001604051809103902060006101000a81548173ffffffffffffffffffffffffffffffffffffffff021916908373ffffffffffffffffffffffffffffffffffffffff16021790555060016002846040518082805190602001908083835b6020831015156107985780518252602082019150602081019050602083039250610773565b6001836020036101000a038019825116818451168082178552505050505050905001915050908152602001604051809103902060006101000a81548160ff02191690831515021790555060018060003373ffffffffffffffffffffffffffffffffffffffff1673ffffffffffffffffffffffffffffffffffffffff168152602001908152602001600020846040518082805190602001908083835b6020831015156108585780518252602082019150602081019050602083039250610833565b6001836020036101000a038019825116818451168082178552505050505050905001915050908152602001604051809103902060006101000a81548160ff0219169083151502179055507f24c6b5e6d0d1fb5bd3c713f7583e172495acd74141c18068b90583d088f58a8b33838342604051808573ffffffffffffffffffffffffffffffffffffffff1673ffffffffffffffffffffffffffffffffffffffff1681526020018473ffffffffffffffffffffffffffffffffffffffff1673ffffffffffffffffffffffffffffffffffffffff16815260200183600181111561093b57fe5b60ff16815260200182815260200194505050505060405180910390a1505050565b6040516108298061097d83390190565b6040516118cd806111a68339019056006060604052341561000f57600080fd5b60405161082938038061082983398101604052808051906020019091908051820191905050816000806101000a81548173ffffffffffffffffffffffffffffffffffffffff021916908373ffffffffffffffffffffffffffffffffffffffff160217905550806001908051906020019061008a929190610092565b505050610137565b828054600181600116156101000203166002900490600052602060002090601f016020900481019282601f106100d357805160ff1916838001178555610101565b82800160010185558215610101579182015b828111156101005782518255916020019190600101906100e5565b5b50905061010e9190610112565b5090565b61013491905b80821115610130576000816000905550600101610118565b5090565b90565b6106e3806101466000396000f300606060405260043610610062576000357c0100000000000000000000000000000000000000000000000000000000900463ffffffff1680630e2d5d58146100675780638da5cb5b146100f5578063b090c8091461014a578063d7f31eb9146101a7575b600080fd5b341561007257600080fd5b61007a610239565b6040518080602001828103825283818151815260200191508051906020019080838360005b838110156100ba57808201518184015260208101905061009f565b50505050905090810190601f1680156100e75780820380516001836020036101000a031916815260200191505b509250505060405180910390f35b341561010057600080fd5b6101086102d7565b604051808273ffffffffffffffffffffffffffffffffffffffff1673ffffffffffffffffffffffffffffffffffffffff16815260200191505060405180910390f35b341561015557600080fd5b6101a5600480803590602001908201803590602001908080601f016020809104026020016040519081016040528093929190818152602001838380828437820191505050505050919050506102fc565b005b61021f600480803573ffffffffffffffffffffffffffffffffffffffff1690602001909190803590602001909190803590602001908201803590602001908080601f01602080910402602001604051908101604052809392919081815260200183838082843782019150505050505091905050610433565b604051808215151515815260200191505060405180910390f35b60018054600181600116156101000203166002900480601f0160208091040260200160405190810160405280929190818152602001828054600181600116156101000203166002900480156102cf5780601f106102a4576101008083540402835291602001916102cf565b820191906000526020600020905b8154815290600101906020018083116102b257829003601f168201915b505050505081565b6000809054906101000a900473ffffffffffffffffffffffffffffffffffffffff1681565b6000809054906101000a900473ffffffffffffffffffffffffffffffffffffffff1673ffffffffffffffffffffffffffffffffffffffff163373ffffffffffffffffffffffffffffffffffffffff1614151561035757600080fd5b806001908051906020019061036d929190610612565b507f38eb669f2aeb5e5acde781a8ab65751e0dc22ac591fd9c43c3251bb433bf465a60014260405180806020018381526020018281038252848181546001816001161561010002031660029004815260200191508054600181600116156101000203166002900480156104215780601f106103f657610100808354040283529160200191610421565b820191906000526020600020905b81548152906001019060200180831161040457829003601f168201915b5050935050505060405180910390a150565b60008060009054906101000a900473ffffffffffffffffffffffffffffffffffffffff1673ffffffffffffffffffffffffffffffffffffffff163373ffffffffffffffffffffffffffffffffffffffff1614151561049057600080fd5b8373ffffffffffffffffffffffffffffffffffffffff16838360405180828051906020019080838360005b838110156104d65780820151818401526020810190506104bb565b50505050905090810190601f1680156105035780820380516001836020036101000a031916815260200191505b5091505060006040518083038185876187965a03f192505050151561052757600080fd5b7f3921673138bd41ca731925600685df97315e9ff7866e97c4b062df27a3a360ff84848442604051808573ffffffffffffffffffffffffffffffffffffffff1673ffffffffffffffffffffffffffffffffffffffff16815260200184815260200180602001838152602001828103825284818151815260200191508051906020019080838360005b838110156105ca5780820151818401526020810190506105af565b50505050905090810190601f1680156105f75780820380516001836020036101000a031916815260200191505b509550505050505060405180910390a1600190509392505050565b828054600181600116156101000203166002900490600052602060002090601f016020900481019282601f1061065357805160ff1916838001178555610681565b82800160010185558215610681579182015b82811115610680578251825591602001919060010190610665565b5b50905061068e9190610692565b5090565b6106b491905b808211156106b0576000816000905550600101610698565b5090565b905600a165627a7a723058200344faef426e92ef8528950217615eb081799c5654694aa6a542fd784cb99d0e0029606060405234156200001057600080fd5b604051620018cd380380620018cd8339810160405280805182019190602001805182019190602001805190602001909190505082600090805190602001906200005b9291906200020e565b5060006003819055506200008382620000ab640100000000026200150c176401000000009004565b620000a2816200018e640100000000026200113d176401000000009004565b505050620002bd565b60008090505b81518110156200018a57620000f28282815181101515620000ce57fe5b90602001906020020151620001b86401000000000262001165176401000000009004565b15156200017c5760016002600084848151811015156200010e57fe5b9060200190602002015173ffffffffffffffffffffffffffffffffffffffff1673ffffffffffffffffffffffffffffffffffffffff16815260200190815260200160002060006101000a81548160ff0219169083151502179055506003600081548092919060010191905055505b8080600101915050620000b1565b5050565b60008112158015620001a257506003548113155b1515620001ae57600080fd5b8060018190555050565b6000600260008373ffffffffffffffffffffffffffffffffffffffff1673ffffffffffffffffffffffffffffffffffffffff16815260200190815260200160002060009054906101000a900460ff169050919050565b828054600181600116156101000203166002900490600052602060002090601f016020900481019282601f106200025157805160ff191683800117855562000282565b8280016001018555821562000282579182015b828111156200028157825182559160200191906001019062000264565b5b50905062000291919062000295565b5090565b620002ba91905b80821115620002b65760008160009055506001016200029c565b5090565b90565b61160080620002cd6000396000f3006060604052600436106100af576000357c0100000000000000000000000000000000000000000000000000000000900463ffffffff168063015785c5146100b45780630e2d5d58146100ef578063173825d91461017d5780635d9ec210146101ce5780637065cb48146102095780638de6262e1461025a5780639ace38c214610283578063b090c809146103c6578063dc8452cd1461043b578063ec096f8d14610464578063ee22610b14610501575b600080fd5b34156100bf57600080fd5b6100d5600480803590602001909190505061053c565b604051808215151515815260200191505060405180910390f35b34156100fa57600080fd5b6101026105c9565b6040518080602001828103825283818151815260200191508051906020019080838360005b83811015610142578082015181840152602081019050610127565b50505050905090810190601f16801561016f5780820380516001836020036101000a031916815260200191505b509250505060405180910390f35b341561018857600080fd5b6101b4600480803573ffffffffffffffffffffffffffffffffffffffff16906020019091905050610667565b604051808215151515815260200191505060405180910390f35b34156101d957600080fd5b6101ef6004808035906020019091905050610796565b604051808215151515815260200191505060405180910390f35b341561021457600080fd5b610240600480803573ffffffffffffffffffffffffffffffffffffffff169060200190919050506108fb565b604051808215151515815260200191505060405180910390f35b341561026557600080fd5b61026d610a2c565b6040518082815260200191505060405180910390f35b341561028e57600080fd5b6102a46004808035906020019091905050610a32565b60405180881515151581526020018773ffffffffffffffffffffffffffffffffffffffff1673ffffffffffffffffffffffffffffffffffffffff168152602001868152602001806020018573ffffffffffffffffffffffffffffffffffffffff1673ffffffffffffffffffffffffffffffffffffffff168152602001848152602001831515151581526020018281038252868181546001816001161561010002031660029004815260200191508054600181600116156101000203166002900480156103b15780601f10610386576101008083540402835291602001916103b1565b820191906000526020600020905b81548152906001019060200180831161039457829003601f168201915b50509850505050505050505060405180910390f35b34156103d157600080fd5b610421600480803590602001908201803590602001908080601f01602080910402602001604051908101604052809392919081815260200183838082843782019150505050505091905050610adc565b604051808215151515815260200191505060405180910390f35b341561044657600080fd5b61044e610bfa565b6040518082815260200191505060405180910390f35b341561046f57600080fd5b6104e7600480803573ffffffffffffffffffffffffffffffffffffffff1690602001909190803590602001909190803590602001908201803590602001908080601f01602080910402602001604051908101604052809392919081815260200183838082843782019150505050505091905050610c00565b604051808215151515815260200191505060405180910390f35b341561050c57600080fd5b6105226004808035906020019091905050610f4c565b604051808215151515815260200191505060405180910390f35b60003073ffffffffffffffffffffffffffffffffffffffff163373ffffffffffffffffffffffffffffffffffffffff1614151561057857600080fd5b6105818261113d565b7f538fbb2b538647da64ce766893211e622c865c1506f29cda67e2bb3247e727088242604051808381526020018281526020019250505060405180910390a160019050919050565b60008054600181600116156101000203166002900480601f01602080910402602001604051908101604052809291908181526020018280546001816001161561010002031660029004801561065f5780601f106106345761010080835404028352916020019161065f565b820191906000526020600020905b81548152906001019060200180831161064257829003601f168201915b505050505081565b60003073ffffffffffffffffffffffffffffffffffffffff163373ffffffffffffffffffffffffffffffffffffffff161415156106a357600080fd5b6106ac82611165565b15156106b757600080fd5b6000600260008473ffffffffffffffffffffffffffffffffffffffff1673ffffffffffffffffffffffffffffffffffffffff16815260200190815260200160002060006101000a81548160ff021916908315150217905550600360008154809291906001900391905055507f769fbc2ec8c9a4bc66b4767cd66ac7ca0ca967982b7c375411e03d66bbfb64c28242604051808373ffffffffffffffffffffffffffffffffffffffff1673ffffffffffffffffffffffffffffffffffffffff1681526020018281526020019250505060405180910390a160019050919050565b60006107a133611165565b15156107ac57600080fd5b816004818154811015156107bc57fe5b906000526020600020906007020160000160009054906101000a900460ff1615156107e657600080fd5b6107f083336111bb565b1515156107fc57600080fd5b600160048481548110151561080d57fe5b906000526020600020906007020160050160003373ffffffffffffffffffffffffffffffffffffffff1673ffffffffffffffffffffffffffffffffffffffff16815260200190815260200160002060006101000a81548160ff02191690831515021790555060048381548110151561088157fe5b906000526020600020906007020160040160008154809291906001019190505550823373ffffffffffffffffffffffffffffffffffffffff167faa2d7c90b922d8f731344d0dd1eb0b0df439b3a9b17b5a1aa55b71103de906ed426040518082815260200191505060405180910390a36001915050919050565b60003073ffffffffffffffffffffffffffffffffffffffff163373ffffffffffffffffffffffffffffffffffffffff1614151561093757600080fd5b8161094181611165565b15151561094d57600080fd5b6001600260008573ffffffffffffffffffffffffffffffffffffffff1673ffffffffffffffffffffffffffffffffffffffff16815260200190815260200160002060006101000a81548160ff0219169083151502179055506003600081548092919060010191905055507f567d314b1f4bef0cf41b5eea6a621ebe9b67dfafe183c591176a3efce5ecc0df8342604051808373ffffffffffffffffffffffffffffffffffffffff1673ffffffffffffffffffffffffffffffffffffffff1681526020018281526020019250505060405180910390a16001915050919050565b60035481565b600481815481101515610a4157fe5b90600052602060002090600702016000915090508060000160009054906101000a900460ff16908060000160019054906101000a900473ffffffffffffffffffffffffffffffffffffffff169080600101549080600201908060030160009054906101000a900473ffffffffffffffffffffffffffffffffffffffff16908060040154908060060160009054906101000a900460ff16905087565b60003073ffffffffffffffffffffffffffffffffffffffff163373ffffffffffffffffffffffffffffffffffffffff16141515610b1857600080fd5b8160009080519060200190610b2e929190611230565b507f38eb669f2aeb5e5acde781a8ab65751e0dc22ac591fd9c43c3251bb433bf465a6000426040518080602001838152602001828103825284818154600181600116156101000203166002900481526020019150805460018160011615610100020316600290048015610be25780601f10610bb757610100808354040283529160200191610be2565b820191906000526020600020905b815481529060010190602001808311610bc557829003601f168201915b5050935050505060405180910390a160019050919050565b60015481565b6000610c0a6112b0565b610c1333611165565b1515610c1e57600080fd5b848484600073ffffffffffffffffffffffffffffffffffffffff168373ffffffffffffffffffffffffffffffffffffffff1614151515610c5d57600080fd5b3073ffffffffffffffffffffffffffffffffffffffff168373ffffffffffffffffffffffffffffffffffffffff161415610ca157600082141515610ca057600080fd5b5b60e0604051908101604052806001151581526020018973ffffffffffffffffffffffffffffffffffffffff1681526020018881526020018781526020013373ffffffffffffffffffffffffffffffffffffffff1681526020016000815260200160001515815250935060048054806001018281610d1e9190611324565b9160005260206000209060070201600086909190915060008201518160000160006101000a81548160ff02191690831515021790555060208201518160000160016101000a81548173ffffffffffffffffffffffffffffffffffffffff021916908373ffffffffffffffffffffffffffffffffffffffff160217905550604082015181600101556060820151816002019080519060200190610dc1929190611356565b5060808201518160030160006101000a81548173ffffffffffffffffffffffffffffffffffffffff021916908373ffffffffffffffffffffffffffffffffffffffff16021790555060a0820151816004015560c08201518160060160006101000a81548160ff0219169083151502179055505050503373ffffffffffffffffffffffffffffffffffffffff167f1f6a5024e4fb970f050b00e832ffd49283cc5e9c877fe5c95ab5b7935881e8ff6001600480549050038a8a8a42604051808681526020018573ffffffffffffffffffffffffffffffffffffffff1673ffffffffffffffffffffffffffffffffffffffff16815260200184815260200180602001838152602001828103825284818151815260200191508051906020019080838360005b83811015610eff578082015181840152602081019050610ee4565b50505050905090810190601f168015610f2c5780820380516001836020036101000a031916815260200191505b50965050505050505060405180910390a260019450505050509392505050565b60008082600154600482815481101515610f6257fe5b90600052602060002090600702016004015412151515610f8157600080fd5b83600481815481101515610f9157fe5b906000526020600020906007020160060160009054906101000a900460ff16151515610fbc57600080fd5b600485815481101515610fcb57fe5b906000526020600020906007020192506001600486815481101515610fec57fe5b906000526020600020906007020160060160006101000a81548160ff0219169083151502179055508260000160019054906101000a900473ffffffffffffffffffffffffffffffffffffffff1673ffffffffffffffffffffffffffffffffffffffff1683600101548460020160405180828054600181600116156101000203166002900480156110bd5780601f10611092576101008083540402835291602001916110bd565b820191906000526020600020905b8154815290600101906020018083116110a057829003601f168201915b505091505060006040518083038185876187965a03f19250505015156110e257600080fd5b843373ffffffffffffffffffffffffffffffffffffffff167fa4d5ebb0449261ce79306f80f2182257fbd05668b173a1a5985964c09389d98d426040518082815260200191505060405180910390a360019350505050919050565b6000811215801561115057506003548113155b151561115b57600080fd5b8060018190555050565b6000600260008373ffffffffffffffffffffffffffffffffffffffff1673ffffffffffffffffffffffffffffffffffffffff16815260200190815260200160002060009054906101000a900460ff169050919050565b60006004838154811015156111cc57fe5b906000526020600020906007020160050160008373ffffffffffffffffffffffffffffffffffffffff1673ffffffffffffffffffffffffffffffffffffffff16815260200190815260200160002060009054906101000a900460ff16905092915050565b828054600181600116156101000203166002900490600052602060002090601f016020900481019282601f1061127157805160ff191683800117855561129f565b8280016001018555821561129f579182015b8281111561129e578251825591602001919060010190611283565b5b5090506112ac91906113d6565b5090565b60e060405190810160405280600015158152602001600073ffffffffffffffffffffffffffffffffffffffff168152602001600081526020016112f16113fb565b8152602001600073ffffffffffffffffffffffffffffffffffffffff168152602001600081526020016000151581525090565b81548183558181151161135157600702816007028360005260206000209182019101611350919061140f565b5b505050565b828054600181600116156101000203166002900490600052602060002090601f016020900481019282601f1061139757805160ff19168380011785556113c5565b828001600101855582156113c5579182015b828111156113c45782518255916020019190600101906113a9565b5b5090506113d291906113d6565b5090565b6113f891905b808211156113f45760008160009055506001016113dc565b5090565b90565b602060405190810160405280600081525090565b6114c191905b808211156114bd57600080820160006101000a81549060ff02191690556000820160016101000a81549073ffffffffffffffffffffffffffffffffffffffff0219169055600182016000905560028201600061147191906114c4565b6003820160006101000a81549073ffffffffffffffffffffffffffffffffffffffff021916905560048201600090556006820160006101000a81549060ff021916905550600701611415565b5090565b90565b50805460018160011615610100020316600290046000825580601f106114ea5750611509565b601f01602090049060005260206000209081019061150891906113d6565b5b50565b60008090505b81518110156115d05761153b828281518110151561152c57fe5b90602001906020020151611165565b15156115c357600160026000848481518110151561155557fe5b9060200190602002015173ffffffffffffffffffffffffffffffffffffffff1673ffffffffffffffffffffffffffffffffffffffff16815260200190815260200160002060006101000a81548160ff0219169083151502179055506003600081548092919060010191905055505b8080600101915050611512565b50505600a165627a7a723058200cf2423511971e04521c3173feb5bf8deb42b1fd414ce343edbe6481fd34f6dc0029a165627a7a72305820bc6492a5ac3fbd20ba050fb8980df6e1867429c7c363f52191d94450cd71ea990029",
  "source": "pragma solidity ^0.4.18;\n\nimport './identity/Identity.sol';\nimport './identity/MultiSigIdentity.sol';\n\ncontract IdentityProtocol {\n\n    mapping(bytes => address) identities;\n    mapping(address => mapping(bytes => bool)) owners;\n    mapping(bytes => bool) indexes;\n\n    event IdentityCreated(address creator, address identity, Type identityType, uint256 timestamp);\n\n    enum Type {\n        PERSONAL,\n        MULTISIG\n    }\n\n    modifier uniqueId(bytes identityId){\n        require(!indexes[identityId]);\n        _;\n    }\n\n    function createPersonalIdentity(bytes identityId, bytes _identityData)\n        uniqueId(identityId)\n        public \n        returns(bool)\n    {\n        Identity identity = new Identity(msg.sender, _identityData);\n        addIdentity(identityId, identity, Type.PERSONAL);\n        return true;\n    }\n\n    function createMultiSigIdentity(bytes identityId, bytes _identityData, address[] _owners, int _required)\n        uniqueId(identityId)\n        public\n        returns(bool)\n    {\n        MultiSigIdentity identity = new MultiSigIdentity(_identityData, _owners, _required);\n        addIdentity(identityId, identity, Type.MULTISIG);\n        return true;\n    }\n\n    function addIdentity(bytes identityId, address identity, Type identityType)\n        internal\n    {\n        identities[identityId] = identity;\n        indexes[identityId] = true;\n        owners[msg.sender][identityId] = true;\n        IdentityCreated(msg.sender, identity, identityType, now);\n    }\n\n    function getIdentity(bytes identityId) \n        public\n        view\n        returns(address identity)\n    {\n        require(indexes[identityId]);\n        return identities[identityId];\n    }\n\n}",
  "sourcePath": "/home/luis/Development/swapy-identity-protocol/contracts/IdentityProtocol.sol",
  "compiler": {
    "name": "solc",
    "version": "0.4.18+commit.9cf6e910.Emscripten.clang"
  },
  "schemaVersion": "1.0.1",
  "updatedAt": "2018-03-16T22:23:47.506Z"
}