{
  "contractName": "MultiSigIdentity",
  "abi": [
    {
      "constant": true,
      "inputs": [],
      "name": "financialData",
      "outputs": [
        {
          "name": "",
          "type": "bytes"
        }
      ],
      "payable": false,
      "stateMutability": "view",
      "type": "function"
    },
    {
      "constant": false,
      "inputs": [
        {
          "name": "oldOwner",
          "type": "address"
        }
      ],
      "name": "removeOwner",
      "outputs": [
        {
          "name": "",
          "type": "bool"
        }
      ],
      "payable": false,
      "stateMutability": "nonpayable",
      "type": "function"
    },
    {
      "constant": false,
      "inputs": [
        {
          "name": "transactionId",
          "type": "uint256"
        }
      ],
      "name": "signTransaction",
      "outputs": [
        {
          "name": "",
          "type": "bool"
        }
      ],
      "payable": false,
      "stateMutability": "nonpayable",
      "type": "function"
    },
    {
      "constant": false,
      "inputs": [
        {
          "name": "newOwner",
          "type": "address"
        }
      ],
      "name": "addOwner",
      "outputs": [
        {
          "name": "",
          "type": "bool"
        }
      ],
      "payable": false,
      "stateMutability": "nonpayable",
      "type": "function"
    },
    {
      "constant": true,
      "inputs": [],
      "name": "activeOwners",
      "outputs": [
        {
          "name": "",
          "type": "uint256"
        }
      ],
      "payable": false,
      "stateMutability": "view",
      "type": "function"
    },
    {
      "constant": true,
      "inputs": [
        {
          "name": "",
          "type": "uint256"
        }
      ],
      "name": "transactions",
      "outputs": [
        {
          "name": "active",
          "type": "bool"
        },
        {
          "name": "to",
          "type": "address"
        },
        {
          "name": "value",
          "type": "uint256"
        },
        {
          "name": "data",
          "type": "bytes"
        },
        {
          "name": "creator",
          "type": "address"
        },
        {
          "name": "signCount",
          "type": "uint256"
        },
        {
          "name": "executed",
          "type": "bool"
        }
      ],
      "payable": false,
      "stateMutability": "view",
      "type": "function"
    },
    {
      "constant": false,
      "inputs": [
        {
          "name": "_financialData",
          "type": "bytes"
        }
      ],
      "name": "setFinancialData",
      "outputs": [
        {
          "name": "",
          "type": "bool"
        }
      ],
      "payable": false,
      "stateMutability": "nonpayable",
      "type": "function"
    },
    {
      "constant": false,
      "inputs": [
        {
          "name": "_required",
          "type": "uint256"
        }
      ],
      "name": "changeRequired",
      "outputs": [
        {
          "name": "",
          "type": "bool"
        }
      ],
      "payable": false,
      "stateMutability": "nonpayable",
      "type": "function"
    },
    {
      "constant": true,
      "inputs": [],
      "name": "required",
      "outputs": [
        {
          "name": "",
          "type": "uint256"
        }
      ],
      "payable": false,
      "stateMutability": "view",
      "type": "function"
    },
    {
      "constant": false,
      "inputs": [
        {
          "name": "to",
          "type": "address"
        },
        {
          "name": "value",
          "type": "uint256"
        },
        {
          "name": "data",
          "type": "bytes"
        }
      ],
      "name": "addTransaction",
      "outputs": [
        {
          "name": "",
          "type": "bool"
        }
      ],
      "payable": false,
      "stateMutability": "nonpayable",
      "type": "function"
    },
    {
      "constant": false,
      "inputs": [
        {
          "name": "transactionId",
          "type": "uint256"
        }
      ],
      "name": "executeTransaction",
      "outputs": [
        {
          "name": "",
          "type": "bool"
        }
      ],
      "payable": false,
      "stateMutability": "nonpayable",
      "type": "function"
    },
    {
      "inputs": [
        {
          "name": "_financialData",
          "type": "bytes"
        },
        {
          "name": "_owners",
          "type": "address[]"
        },
        {
          "name": "_required",
          "type": "uint256"
        }
      ],
      "payable": false,
      "stateMutability": "nonpayable",
      "type": "constructor"
    },
    {
      "anonymous": false,
      "inputs": [
        {
          "indexed": true,
          "name": "creator",
          "type": "address"
        },
        {
          "indexed": false,
          "name": "transactionId",
          "type": "uint256"
        },
        {
          "indexed": false,
          "name": "destination",
          "type": "address"
        },
        {
          "indexed": false,
          "name": "value",
          "type": "uint256"
        },
        {
          "indexed": false,
          "name": "data",
          "type": "bytes"
        },
        {
          "indexed": false,
          "name": "timestamp",
          "type": "uint256"
        }
      ],
      "name": "TransactionCreated",
      "type": "event"
    },
    {
      "anonymous": false,
      "inputs": [
        {
          "indexed": true,
          "name": "signer",
          "type": "address"
        },
        {
          "indexed": true,
          "name": "transactionId",
          "type": "uint256"
        },
        {
          "indexed": false,
          "name": "timestamp",
          "type": "uint256"
        }
      ],
      "name": "TransactionSigned",
      "type": "event"
    },
    {
      "anonymous": false,
      "inputs": [
        {
          "indexed": true,
          "name": "executor",
          "type": "address"
        },
        {
          "indexed": true,
          "name": "transactionId",
          "type": "uint256"
        },
        {
          "indexed": false,
          "name": "timestamp",
          "type": "uint256"
        }
      ],
      "name": "TransactionExecuted",
      "type": "event"
    },
    {
      "anonymous": false,
      "inputs": [
        {
          "indexed": false,
          "name": "required",
          "type": "uint256"
        },
        {
          "indexed": false,
          "name": "timestamp",
          "type": "uint256"
        }
      ],
      "name": "RequiredChanged",
      "type": "event"
    },
    {
      "anonymous": false,
      "inputs": [
        {
          "indexed": false,
          "name": "owner",
          "type": "address"
        },
        {
          "indexed": false,
          "name": "timestamp",
          "type": "uint256"
        }
      ],
      "name": "OwnerAdded",
      "type": "event"
    },
    {
      "anonymous": false,
      "inputs": [
        {
          "indexed": false,
          "name": "owner",
          "type": "address"
        },
        {
          "indexed": false,
          "name": "timestamp",
          "type": "uint256"
        }
      ],
      "name": "OwnerRemoved",
      "type": "event"
    },
    {
      "anonymous": false,
      "inputs": [
        {
          "indexed": false,
          "name": "financialData",
          "type": "bytes"
        },
        {
          "indexed": false,
          "name": "timestamp",
          "type": "uint256"
        }
      ],
      "name": "ProfileChanged",
      "type": "event"
    }
  ],
  "bytecode": "0x606060405234156200001057600080fd5b60405162001982380380620019828339810160405280805182019190602001805182019190602001805190602001909190505082600090805190602001906200005b92919062000247565b5060006003819055506200008382620000ab640100000000026200157e176401000000009004565b620000a281620001a8640100000000026200127a176401000000009004565b505050620002f6565b60008090505b8151811015620001a457620000f28282815181101515620000ce57fe5b90602001906020020151620001d26401000000000262001178176401000000009004565b1515620001965760016002600084848151811015156200010e57fe5b9060200190602002015173ffffffffffffffffffffffffffffffffffffffff1673ffffffffffffffffffffffffffffffffffffffff16815260200190815260200160002060006101000a81548160ff0219169083151502179055506200018f600160035462000228640100000000026200125c179091906401000000009004565b6003819055505b8080600101915050620000b1565b5050565b60008110158015620001bc57506003548111155b1515620001c857600080fd5b8060018190555050565b6000600260008373ffffffffffffffffffffffffffffffffffffffff1673ffffffffffffffffffffffffffffffffffffffff16815260200190815260200160002060009054906101000a900460ff169050919050565b60008082840190508381101515156200023d57fe5b8091505092915050565b828054600181600116156101000203166002900490600052602060002090601f016020900481019282601f106200028a57805160ff1916838001178555620002bb565b82800160010185558215620002bb579182015b82811115620002ba5782518255916020019190600101906200029d565b5b509050620002ca9190620002ce565b5090565b620002f391905b80821115620002ef576000816000905550600101620002d5565b5090565b90565b61167c80620003066000396000f3006060604052600436106100af576000357c0100000000000000000000000000000000000000000000000000000000900463ffffffff1680630e2d5d58146100b4578063173825d9146101425780635d9ec210146101935780637065cb48146101ce5780638de6262e1461021f5780639ace38c214610248578063b090c8091461038b578063d5773cb614610400578063dc8452cd1461043b578063ec096f8d14610464578063ee22610b14610501575b600080fd5b34156100bf57600080fd5b6100c761053c565b6040518080602001828103825283818151815260200191508051906020019080838360005b838110156101075780820151818401526020810190506100ec565b50505050905090810190601f1680156101345780820380516001836020036101000a031916815260200191505b509250505060405180910390f35b341561014d57600080fd5b610179600480803573ffffffffffffffffffffffffffffffffffffffff169060200190919050506105da565b604051808215151515815260200191505060405180910390f35b341561019e57600080fd5b6101b46004808035906020019091905050610712565b604051808215151515815260200191505060405180910390f35b34156101d957600080fd5b610205600480803573ffffffffffffffffffffffffffffffffffffffff1690602001909190505061089f565b604051808215151515815260200191505060405180910390f35b341561022a57600080fd5b6102326109da565b6040518082815260200191505060405180910390f35b341561025357600080fd5b61026960048080359060200190919050506109e0565b60405180881515151581526020018773ffffffffffffffffffffffffffffffffffffffff1673ffffffffffffffffffffffffffffffffffffffff168152602001868152602001806020018573ffffffffffffffffffffffffffffffffffffffff1673ffffffffffffffffffffffffffffffffffffffff168152602001848152602001831515151581526020018281038252868181546001816001161561010002031660029004815260200191508054600181600116156101000203166002900480156103765780601f1061034b57610100808354040283529160200191610376565b820191906000526020600020905b81548152906001019060200180831161035957829003601f168201915b50509850505050505050505060405180910390f35b341561039657600080fd5b6103e6600480803590602001908201803590602001908080601f01602080910402602001604051908101604052809392919081815260200183838082843782019150505050505091905050610a8a565b604051808215151515815260200191505060405180910390f35b341561040b57600080fd5b6104216004808035906020019091905050610ba8565b604051808215151515815260200191505060405180910390f35b341561044657600080fd5b61044e610c35565b6040518082815260200191505060405180910390f35b341561046f57600080fd5b6104e7600480803573ffffffffffffffffffffffffffffffffffffffff1690602001909190803590602001909190803590602001908201803590602001908080601f01602080910402602001604051908101604052809392919081815260200183838082843782019150505050505091905050610c3b565b604051808215151515815260200191505060405180910390f35b341561050c57600080fd5b6105226004808035906020019091905050610f87565b604051808215151515815260200191505060405180910390f35b60008054600181600116156101000203166002900480601f0160208091040260200160405190810160405280929190818152602001828054600181600116156101000203166002900480156105d25780601f106105a7576101008083540402835291602001916105d2565b820191906000526020600020905b8154815290600101906020018083116105b557829003601f168201915b505050505081565b60003073ffffffffffffffffffffffffffffffffffffffff163373ffffffffffffffffffffffffffffffffffffffff1614151561061657600080fd5b61061f82611178565b151561062a57600080fd5b6000600260008473ffffffffffffffffffffffffffffffffffffffff1673ffffffffffffffffffffffffffffffffffffffff16815260200190815260200160002060006101000a81548160ff02191690831515021790555061069860016003546111ce90919063ffffffff16565b6003819055507f769fbc2ec8c9a4bc66b4767cd66ac7ca0ca967982b7c375411e03d66bbfb64c28242604051808373ffffffffffffffffffffffffffffffffffffffff1673ffffffffffffffffffffffffffffffffffffffff1681526020018281526020019250505060405180910390a160019050919050565b600061071d33611178565b151561072857600080fd5b8160048181548110151561073857fe5b906000526020600020906007020160000160009054906101000a900460ff16151561076257600080fd5b61076c83336111e7565b15151561077857600080fd5b600160048481548110151561078957fe5b906000526020600020906007020160050160003373ffffffffffffffffffffffffffffffffffffffff1673ffffffffffffffffffffffffffffffffffffffff16815260200190815260200160002060006101000a81548160ff021916908315150217905550610822600160048581548110151561080257fe5b90600052602060002090600702016004015461125c90919063ffffffff16565b60048481548110151561083157fe5b906000526020600020906007020160040181905550823373ffffffffffffffffffffffffffffffffffffffff167faa2d7c90b922d8f731344d0dd1eb0b0df439b3a9b17b5a1aa55b71103de906ed426040518082815260200191505060405180910390a36001915050919050565b60003073ffffffffffffffffffffffffffffffffffffffff163373ffffffffffffffffffffffffffffffffffffffff161415156108db57600080fd5b816108e581611178565b1515156108f157600080fd5b6001600260008573ffffffffffffffffffffffffffffffffffffffff1673ffffffffffffffffffffffffffffffffffffffff16815260200190815260200160002060006101000a81548160ff02191690831515021790555061095f600160035461125c90919063ffffffff16565b6003819055507f567d314b1f4bef0cf41b5eea6a621ebe9b67dfafe183c591176a3efce5ecc0df8342604051808373ffffffffffffffffffffffffffffffffffffffff1673ffffffffffffffffffffffffffffffffffffffff1681526020018281526020019250505060405180910390a16001915050919050565b60035481565b6004818154811015156109ef57fe5b90600052602060002090600702016000915090508060000160009054906101000a900460ff16908060000160019054906101000a900473ffffffffffffffffffffffffffffffffffffffff169080600101549080600201908060030160009054906101000a900473ffffffffffffffffffffffffffffffffffffffff16908060040154908060060160009054906101000a900460ff16905087565b60003073ffffffffffffffffffffffffffffffffffffffff163373ffffffffffffffffffffffffffffffffffffffff16141515610ac657600080fd5b8160009080519060200190610adc9291906112a2565b507f38eb669f2aeb5e5acde781a8ab65751e0dc22ac591fd9c43c3251bb433bf465a6000426040518080602001838152602001828103825284818154600181600116156101000203166002900481526020019150805460018160011615610100020316600290048015610b905780601f10610b6557610100808354040283529160200191610b90565b820191906000526020600020905b815481529060010190602001808311610b7357829003601f168201915b5050935050505060405180910390a160019050919050565b60003073ffffffffffffffffffffffffffffffffffffffff163373ffffffffffffffffffffffffffffffffffffffff16141515610be457600080fd5b610bed8261127a565b7ffb3001e0843edb719860511052e4bdaf1475810dbadedb6eb4443937a25e64d98242604051808381526020018281526020019250505060405180910390a160019050919050565b60015481565b6000610c45611322565b610c4e33611178565b1515610c5957600080fd5b848484600073ffffffffffffffffffffffffffffffffffffffff168373ffffffffffffffffffffffffffffffffffffffff1614151515610c9857600080fd5b3073ffffffffffffffffffffffffffffffffffffffff168373ffffffffffffffffffffffffffffffffffffffff161415610cdc57600082141515610cdb57600080fd5b5b60e0604051908101604052806001151581526020018973ffffffffffffffffffffffffffffffffffffffff1681526020018881526020018781526020013373ffffffffffffffffffffffffffffffffffffffff1681526020016000815260200160001515815250935060048054806001018281610d599190611396565b9160005260206000209060070201600086909190915060008201518160000160006101000a81548160ff02191690831515021790555060208201518160000160016101000a81548173ffffffffffffffffffffffffffffffffffffffff021916908373ffffffffffffffffffffffffffffffffffffffff160217905550604082015181600101556060820151816002019080519060200190610dfc9291906113c8565b5060808201518160030160006101000a81548173ffffffffffffffffffffffffffffffffffffffff021916908373ffffffffffffffffffffffffffffffffffffffff16021790555060a0820151816004015560c08201518160060160006101000a81548160ff0219169083151502179055505050503373ffffffffffffffffffffffffffffffffffffffff167f1f6a5024e4fb970f050b00e832ffd49283cc5e9c877fe5c95ab5b7935881e8ff6001600480549050038a8a8a42604051808681526020018573ffffffffffffffffffffffffffffffffffffffff1673ffffffffffffffffffffffffffffffffffffffff16815260200184815260200180602001838152602001828103825284818151815260200191508051906020019080838360005b83811015610f3a578082015181840152602081019050610f1f565b50505050905090810190601f168015610f675780820380516001836020036101000a031916815260200191505b50965050505050505060405180910390a260019450505050509392505050565b60008082600154600482815481101515610f9d57fe5b90600052602060002090600702016004015410151515610fbc57600080fd5b83600481815481101515610fcc57fe5b906000526020600020906007020160060160009054906101000a900460ff16151515610ff757600080fd5b60048581548110151561100657fe5b90600052602060002090600702019250600160048681548110151561102757fe5b906000526020600020906007020160060160006101000a81548160ff0219169083151502179055508260000160019054906101000a900473ffffffffffffffffffffffffffffffffffffffff1673ffffffffffffffffffffffffffffffffffffffff1683600101548460020160405180828054600181600116156101000203166002900480156110f85780601f106110cd576101008083540402835291602001916110f8565b820191906000526020600020905b8154815290600101906020018083116110db57829003601f168201915b505091505060006040518083038185876187965a03f192505050151561111d57600080fd5b843373ffffffffffffffffffffffffffffffffffffffff167fa4d5ebb0449261ce79306f80f2182257fbd05668b173a1a5985964c09389d98d426040518082815260200191505060405180910390a360019350505050919050565b6000600260008373ffffffffffffffffffffffffffffffffffffffff1673ffffffffffffffffffffffffffffffffffffffff16815260200190815260200160002060009054906101000a900460ff169050919050565b60008282111515156111dc57fe5b818303905092915050565b60006004838154811015156111f857fe5b906000526020600020906007020160050160008373ffffffffffffffffffffffffffffffffffffffff1673ffffffffffffffffffffffffffffffffffffffff16815260200190815260200160002060009054906101000a900460ff16905092915050565b600080828401905083811015151561127057fe5b8091505092915050565b6000811015801561128d57506003548111155b151561129857600080fd5b8060018190555050565b828054600181600116156101000203166002900490600052602060002090601f016020900481019282601f106112e357805160ff1916838001178555611311565b82800160010185558215611311579182015b828111156113105782518255916020019190600101906112f5565b5b50905061131e9190611448565b5090565b60e060405190810160405280600015158152602001600073ffffffffffffffffffffffffffffffffffffffff1681526020016000815260200161136361146d565b8152602001600073ffffffffffffffffffffffffffffffffffffffff168152602001600081526020016000151581525090565b8154818355818115116113c3576007028160070283600052602060002091820191016113c29190611481565b5b505050565b828054600181600116156101000203166002900490600052602060002090601f016020900481019282601f1061140957805160ff1916838001178555611437565b82800160010185558215611437579182015b8281111561143657825182559160200191906001019061141b565b5b5090506114449190611448565b5090565b61146a91905b8082111561146657600081600090555060010161144e565b5090565b90565b602060405190810160405280600081525090565b61153391905b8082111561152f57600080820160006101000a81549060ff02191690556000820160016101000a81549073ffffffffffffffffffffffffffffffffffffffff021916905560018201600090556002820160006114e39190611536565b6003820160006101000a81549073ffffffffffffffffffffffffffffffffffffffff021916905560048201600090556006820160006101000a81549060ff021916905550600701611487565b5090565b90565b50805460018160011615610100020316600290046000825580601f1061155c575061157b565b601f01602090049060005260206000209081019061157a9190611448565b5b50565b60008090505b815181101561164c576115ad828281518110151561159e57fe5b90602001906020020151611178565b151561163f5760016002600084848151811015156115c757fe5b9060200190602002015173ffffffffffffffffffffffffffffffffffffffff1673ffffffffffffffffffffffffffffffffffffffff16815260200190815260200160002060006101000a81548160ff021916908315150217905550611638600160035461125c90919063ffffffff16565b6003819055505b8080600101915050611584565b50505600a165627a7a7230582075c453a30de5a3a5c86ff5f3a9248c27fc1e9350043c49c71d62cdeb8efeeb8e0029",
  "source": "pragma solidity ^0.4.18;\n\nimport 'zeppelin-solidity/contracts/math/SafeMath.sol';\n\ncontract MultiSigIdentity {\n    using SafeMath for uint256;\n    \n    bytes public financialData;\n    uint256 public required;\n    mapping(address=>bool) owners;\n    uint256 public activeOwners;\n    Transaction[] public transactions;\n\n\n    struct Transaction {\n        bool active;\n        address to;\n        uint value;\n        bytes data;\n        address creator;\n        uint256 signCount;\n        mapping(address => bool) signers;\n        bool executed;\n    }\n\n    event TransactionCreated(address indexed creator, uint transactionId, address destination, uint256 value, bytes data, uint256 timestamp);\n    event TransactionSigned(address indexed signer, uint indexed transactionId, uint256 timestamp);\n    event TransactionExecuted(address indexed executor, uint indexed transactionId, uint256 timestamp);\n    event RequiredChanged(uint256 required, uint256 timestamp);\n    event OwnerAdded(address owner, uint256 timestamp);\n    event OwnerRemoved(address owner, uint256 timestamp);\n    event ProfileChanged(bytes financialData, uint256 timestamp);\n\n    modifier onlyWallet() {\n        require(msg.sender == address(this));\n        _;\n    }\n\n    modifier onlyNewOwner(address owner){\n        require(!isOwner(owner));\n        _;\n    }\n\n    modifier onlyOwner(){\n        require(isOwner(msg.sender));\n        _;\n    }\n\n    modifier onlySigned(uint transactionId) {\n        require(transactions[transactionId].signCount >= required);\n        _;\n    }\n\n    modifier notExecuted(uint transactionId) {\n        require(!transactions[transactionId].executed);\n        _;\n    } \n\n    modifier validTransaction(address to, uint256 value, bytes data) {\n        require(to != address(0));\n        if (to == address(this)) {\n            require(value == 0);\n        }\n        _;\n    }\n\n    modifier activeTransaction(uint transactionId) {\n        require(transactions[transactionId].active);\n        _;\n    }\n\n    function MultiSigIdentity (bytes _financialData, address[] _owners, uint256 _required)\n        public \n    {\n        financialData = _financialData;\n        activeOwners = 0;\n        setOwners(_owners);\n        setRequired(_required);\n    }\n\n    function setOwners(address[] _owners)\n        internal\n    {\n        for (uint i = 0; i < _owners.length; i++) {\n            if (!isOwner(_owners[i])) {\n                owners[_owners[i]] = true;\n                activeOwners = activeOwners.add(1);\n            }\n        }\n    }\n\n    function addOwner(address newOwner)\n        onlyWallet\n        onlyNewOwner(newOwner)\n        public \n        returns(bool)\n    {\n        owners[newOwner] = true;\n        activeOwners = activeOwners.add(1);\n        OwnerAdded(newOwner, now);\n        return true;\n    }\n\n    function removeOwner(address oldOwner) \n        onlyWallet\n        public\n        returns(bool)\n    {\n        require(isOwner(oldOwner));\n        owners[oldOwner] = false;\n        activeOwners = activeOwners.sub(1);\n        OwnerRemoved(oldOwner, now);\n        return true;\n    }\n\n    function changeRequired(uint256 _required) \n        onlyWallet \n        public\n        returns(bool)\n    {\n        setRequired(_required);\n        RequiredChanged(_required, now);\n        return true;\n    }\n\n    function setFinancialData(bytes _financialData)\n        onlyWallet\n        public\n        returns(bool)\n    {\n        financialData = _financialData;\n        ProfileChanged(financialData, now);\n        return true;\n    }\n    \n    function setRequired(uint256 _required)\n        internal\n    {\n        require(_required >= 0 && _required <= activeOwners);\n        required = _required;\n    }\n\n    function addTransaction(address to, uint256 value, bytes data) \n        onlyOwner\n        validTransaction(to, value, data)\n        public\n        returns(bool)\n    {\n        Transaction memory transaction = Transaction(true,to,value,data,msg.sender,0,false);\n        transactions.push(transaction);\n        TransactionCreated(msg.sender,transactions.length - 1,to,value,data, now);\n        return true;\n    }\n    \n    function signTransaction(uint transactionId) \n        onlyOwner\n        activeTransaction(transactionId) \n        public\n        returns(bool)\n    {\n        require(!checkSign(transactionId, msg.sender));\n        transactions[transactionId].signers[msg.sender] = true;\n        transactions[transactionId].signCount = transactions[transactionId].signCount.add(1);\n        TransactionSigned(msg.sender, transactionId, now);\n        return true;\n    }\n\n    function executeTransaction(uint transactionId) \n        onlySigned(transactionId)\n        notExecuted(transactionId)\n        public \n        returns(bool)\n    {\n        Transaction storage transaction = transactions[transactionId];\n        transactions[transactionId].executed = true;\n        require(transaction.to.call.value(transaction.value)(transaction.data));\n        TransactionExecuted(msg.sender, transactionId, now);\n        return true;\n    }\n\n    function isOwner(address _owner) \n        view \n        internal\n        returns(bool)\n    {\n        return owners[_owner];\n    }\n\n    function checkSign(uint transactionId, address signer)\n        view\n        internal\n        returns(bool)\n    {\n        return transactions[transactionId].signers[signer];\n    }\n}",
  "sourcePath": "/home/luis/Development/swapy-identity-protocol/contracts/identity/MultiSigIdentity.sol",
  "compiler": {
    "name": "solc",
    "version": "0.4.18+commit.9cf6e910.Emscripten.clang"
  },
  "schemaVersion": "1.0.1",
  "updatedAt": "2018-03-21T18:52:59.684Z"
}