{
  "contractName": "Identity",
  "abi": [
    {
      "constant": true,
      "inputs": [],
      "name": "financialData",
      "outputs": [
        {
          "name": "",
          "type": "bytes"
        }
      ],
      "payable": false,
      "stateMutability": "view",
      "type": "function"
    },
    {
      "constant": false,
      "inputs": [
        {
          "name": "_financialData",
          "type": "bytes"
        }
      ],
      "name": "setFinancialData",
      "outputs": [],
      "payable": false,
      "stateMutability": "nonpayable",
      "type": "function"
    },
    {
      "constant": false,
      "inputs": [
        {
          "name": "to",
          "type": "address"
        },
        {
          "name": "value",
          "type": "uint256"
        },
        {
          "name": "data",
          "type": "bytes"
        }
      ],
      "name": "forward",
      "outputs": [
        {
          "name": "",
          "type": "bool"
        }
      ],
      "payable": true,
      "stateMutability": "payable",
      "type": "function"
    },
    {
      "inputs": [
        {
          "name": "_owner",
          "type": "address"
        },
        {
          "name": "_financialData",
          "type": "bytes"
        }
      ],
      "payable": false,
      "stateMutability": "nonpayable",
      "type": "constructor"
    },
    {
      "anonymous": false,
      "inputs": [
        {
          "indexed": false,
          "name": "destination",
          "type": "address"
        },
        {
          "indexed": false,
          "name": "value",
          "type": "uint256"
        },
        {
          "indexed": false,
          "name": "data",
          "type": "bytes"
        },
        {
          "indexed": false,
          "name": "timestamp",
          "type": "uint256"
        }
      ],
      "name": "Forwarded",
      "type": "event"
    },
    {
      "anonymous": false,
      "inputs": [
        {
          "indexed": false,
          "name": "financialData",
          "type": "bytes"
        },
        {
          "indexed": false,
          "name": "timestamp",
          "type": "uint256"
        }
      ],
      "name": "ProfileChanged",
      "type": "event"
    }
  ],
  "bytecode": "0x6060604052341561000f57600080fd5b6040516107a43803806107a483398101604052808051906020019091908051820191905050816000806101000a81548173ffffffffffffffffffffffffffffffffffffffff021916908373ffffffffffffffffffffffffffffffffffffffff160217905550806001908051906020019061008a929190610092565b505050610137565b828054600181600116156101000203166002900490600052602060002090601f016020900481019282601f106100d357805160ff1916838001178555610101565b82800160010185558215610101579182015b828111156101005782518255916020019190600101906100e5565b5b50905061010e9190610112565b5090565b61013491905b80821115610130576000816000905550600101610118565b5090565b90565b61065e806101466000396000f300606060405260043610610057576000357c0100000000000000000000000000000000000000000000000000000000900463ffffffff1680630e2d5d581461005c578063b090c809146100ea578063d7f31eb914610147575b600080fd5b341561006757600080fd5b61006f6101d9565b6040518080602001828103825283818151815260200191508051906020019080838360005b838110156100af578082015181840152602081019050610094565b50505050905090810190601f1680156100dc5780820380516001836020036101000a031916815260200191505b509250505060405180910390f35b34156100f557600080fd5b610145600480803590602001908201803590602001908080601f01602080910402602001604051908101604052809392919081815260200183838082843782019150505050505091905050610277565b005b6101bf600480803573ffffffffffffffffffffffffffffffffffffffff1690602001909190803590602001909190803590602001908201803590602001908080601f016020809104026020016040519081016040528093929190818152602001838380828437820191505050505050919050506103ae565b604051808215151515815260200191505060405180910390f35b60018054600181600116156101000203166002900480601f01602080910402602001604051908101604052809291908181526020018280546001816001161561010002031660029004801561026f5780601f106102445761010080835404028352916020019161026f565b820191906000526020600020905b81548152906001019060200180831161025257829003601f168201915b505050505081565b6000809054906101000a900473ffffffffffffffffffffffffffffffffffffffff1673ffffffffffffffffffffffffffffffffffffffff163373ffffffffffffffffffffffffffffffffffffffff161415156102d257600080fd5b80600190805190602001906102e892919061058d565b507f38eb669f2aeb5e5acde781a8ab65751e0dc22ac591fd9c43c3251bb433bf465a600142604051808060200183815260200182810382528481815460018160011615610100020316600290048152602001915080546001816001161561010002031660029004801561039c5780601f106103715761010080835404028352916020019161039c565b820191906000526020600020905b81548152906001019060200180831161037f57829003601f168201915b5050935050505060405180910390a150565b60008060009054906101000a900473ffffffffffffffffffffffffffffffffffffffff1673ffffffffffffffffffffffffffffffffffffffff163373ffffffffffffffffffffffffffffffffffffffff1614151561040b57600080fd5b8373ffffffffffffffffffffffffffffffffffffffff16838360405180828051906020019080838360005b83811015610451578082015181840152602081019050610436565b50505050905090810190601f16801561047e5780820380516001836020036101000a031916815260200191505b5091505060006040518083038185876187965a03f19250505015156104a257600080fd5b7f3921673138bd41ca731925600685df97315e9ff7866e97c4b062df27a3a360ff84848442604051808573ffffffffffffffffffffffffffffffffffffffff1673ffffffffffffffffffffffffffffffffffffffff16815260200184815260200180602001838152602001828103825284818151815260200191508051906020019080838360005b8381101561054557808201518184015260208101905061052a565b50505050905090810190601f1680156105725780820380516001836020036101000a031916815260200191505b509550505050505060405180910390a1600190509392505050565b828054600181600116156101000203166002900490600052602060002090601f016020900481019282601f106105ce57805160ff19168380011785556105fc565b828001600101855582156105fc579182015b828111156105fb5782518255916020019190600101906105e0565b5b509050610609919061060d565b5090565b61062f91905b8082111561062b576000816000905550600101610613565b5090565b905600a165627a7a7230582092d9b81c13c2e2100d0af452b81901505d39c0a996106c2b6b2c44fc62b6ab020029",
  "source": "pragma solidity ^0.4.18;\n\ncontract Identity {\n    \n    address owner;\n    bytes public financialData;\n\n    event Forwarded(address destination, uint256 value, bytes data, uint256 timestamp);\n    event ProfileChanged(bytes financialData, uint256 timestamp);\n\n    modifier onlyOwner() {\n        require(msg.sender == owner);\n        _;\n    }\n\n    function Identity(address _owner, bytes _financialData) \n        public\n    {\n        owner = _owner;\n        financialData = _financialData;\n    }\n\n    function forward(address to, uint256 value, bytes data) \n        payable\n        onlyOwner\n        public\n        returns(bool)\n    {\n        require(to.call.value(value)(data));\n        Forwarded(to, value, data, now);\n        return true;\n    }\n\n\n    function setFinancialData(bytes _financialData)\n        onlyOwner\n        public\n    {\n        financialData = _financialData;\n        ProfileChanged(financialData, now);\n    }\n\n    \n}",
  "sourcePath": "/home/luis/Development/swapy-identity-protocol/contracts/identity/Identity.sol",
  "compiler": {
    "name": "solc",
    "version": "0.4.18+commit.9cf6e910.Emscripten.clang"
  },
  "schemaVersion": "1.0.1",
  "updatedAt": "2018-01-31T21:26:59.923Z"
}