{
  "contractName": "MultiSigIdentity",
  "abi": [
    {
      "constant": true,
      "inputs": [],
      "name": "financialData",
      "outputs": [
        {
          "name": "",
          "type": "bytes"
        }
      ],
      "payable": false,
      "stateMutability": "view",
      "type": "function"
    },
    {
      "constant": true,
      "inputs": [],
      "name": "activeOwners",
      "outputs": [
        {
          "name": "",
          "type": "int256"
        }
      ],
      "payable": false,
      "stateMutability": "view",
      "type": "function"
    },
    {
      "constant": true,
      "inputs": [
        {
          "name": "",
          "type": "uint256"
        }
      ],
      "name": "transactions",
      "outputs": [
        {
          "name": "active",
          "type": "bool"
        },
        {
          "name": "to",
          "type": "address"
        },
        {
          "name": "value",
          "type": "uint256"
        },
        {
          "name": "data",
          "type": "bytes"
        },
        {
          "name": "creator",
          "type": "address"
        },
        {
          "name": "signCount",
          "type": "int256"
        },
        {
          "name": "executed",
          "type": "bool"
        }
      ],
      "payable": false,
      "stateMutability": "view",
      "type": "function"
    },
    {
      "constant": true,
      "inputs": [],
      "name": "required",
      "outputs": [
        {
          "name": "",
          "type": "int256"
        }
      ],
      "payable": false,
      "stateMutability": "view",
      "type": "function"
    },
    {
      "inputs": [
        {
          "name": "_financialData",
          "type": "bytes"
        },
        {
          "name": "_owners",
          "type": "address[]"
        },
        {
          "name": "_required",
          "type": "int256"
        }
      ],
      "payable": false,
      "stateMutability": "nonpayable",
      "type": "constructor"
    },
    {
      "anonymous": false,
      "inputs": [
        {
          "indexed": true,
          "name": "creator",
          "type": "address"
        },
        {
          "indexed": false,
          "name": "transactionId",
          "type": "uint256"
        },
        {
          "indexed": false,
          "name": "destination",
          "type": "address"
        },
        {
          "indexed": false,
          "name": "value",
          "type": "uint256"
        },
        {
          "indexed": false,
          "name": "data",
          "type": "bytes"
        },
        {
          "indexed": false,
          "name": "timestamp",
          "type": "uint256"
        }
      ],
      "name": "TransactionCreated",
      "type": "event"
    },
    {
      "anonymous": false,
      "inputs": [
        {
          "indexed": true,
          "name": "signer",
          "type": "address"
        },
        {
          "indexed": true,
          "name": "transactionId",
          "type": "uint256"
        },
        {
          "indexed": false,
          "name": "timestamp",
          "type": "uint256"
        }
      ],
      "name": "TransactionSigned",
      "type": "event"
    },
    {
      "anonymous": false,
      "inputs": [
        {
          "indexed": true,
          "name": "executor",
          "type": "address"
        },
        {
          "indexed": true,
          "name": "transactionId",
          "type": "uint256"
        },
        {
          "indexed": false,
          "name": "timestamp",
          "type": "uint256"
        }
      ],
      "name": "TransactionExecuted",
      "type": "event"
    },
    {
      "anonymous": false,
      "inputs": [
        {
          "indexed": false,
          "name": "required",
          "type": "int256"
        },
        {
          "indexed": false,
          "name": "timestamp",
          "type": "uint256"
        }
      ],
      "name": "RequiredChanged",
      "type": "event"
    },
    {
      "anonymous": false,
      "inputs": [
        {
          "indexed": false,
          "name": "owner",
          "type": "address"
        },
        {
          "indexed": false,
          "name": "timestamp",
          "type": "uint256"
        }
      ],
      "name": "OwnerAdded",
      "type": "event"
    },
    {
      "anonymous": false,
      "inputs": [
        {
          "indexed": false,
          "name": "owner",
          "type": "address"
        },
        {
          "indexed": false,
          "name": "timestamp",
          "type": "uint256"
        }
      ],
      "name": "OwnerRemoved",
      "type": "event"
    },
    {
      "anonymous": false,
      "inputs": [
        {
          "indexed": false,
          "name": "financialData",
          "type": "bytes"
        },
        {
          "indexed": false,
          "name": "timestamp",
          "type": "uint256"
        }
      ],
      "name": "ProfileChanged",
      "type": "event"
    },
    {
      "constant": false,
      "inputs": [
        {
          "name": "newOwner",
          "type": "address"
        }
      ],
      "name": "addOwner",
      "outputs": [
        {
          "name": "",
          "type": "bool"
        }
      ],
      "payable": false,
      "stateMutability": "nonpayable",
      "type": "function"
    },
    {
      "constant": false,
      "inputs": [
        {
          "name": "oldOwner",
          "type": "address"
        }
      ],
      "name": "removeOwner",
      "outputs": [
        {
          "name": "",
          "type": "bool"
        }
      ],
      "payable": false,
      "stateMutability": "nonpayable",
      "type": "function"
    },
    {
      "constant": false,
      "inputs": [
        {
          "name": "_required",
          "type": "int256"
        }
      ],
      "name": "changeRequired",
      "outputs": [
        {
          "name": "",
          "type": "bool"
        }
      ],
      "payable": false,
      "stateMutability": "nonpayable",
      "type": "function"
    },
    {
      "constant": false,
      "inputs": [
        {
          "name": "_financialData",
          "type": "bytes"
        }
      ],
      "name": "setFinancialData",
      "outputs": [
        {
          "name": "",
          "type": "bool"
        }
      ],
      "payable": false,
      "stateMutability": "nonpayable",
      "type": "function"
    },
    {
      "constant": false,
      "inputs": [
        {
          "name": "to",
          "type": "address"
        },
        {
          "name": "value",
          "type": "uint256"
        },
        {
          "name": "data",
          "type": "bytes"
        }
      ],
      "name": "addTransaction",
      "outputs": [
        {
          "name": "",
          "type": "bool"
        }
      ],
      "payable": false,
      "stateMutability": "nonpayable",
      "type": "function"
    },
    {
      "constant": false,
      "inputs": [
        {
          "name": "transactionId",
          "type": "uint256"
        }
      ],
      "name": "signTransaction",
      "outputs": [
        {
          "name": "",
          "type": "bool"
        }
      ],
      "payable": false,
      "stateMutability": "nonpayable",
      "type": "function"
    },
    {
      "constant": false,
      "inputs": [
        {
          "name": "transactionId",
          "type": "uint256"
        }
      ],
      "name": "executeTransaction",
      "outputs": [
        {
          "name": "",
          "type": "bool"
        }
      ],
      "payable": false,
      "stateMutability": "nonpayable",
      "type": "function"
    }
  ],
  "bytecode": "0x606060405234156200001057600080fd5b604051620018cd380380620018cd8339810160405280805182019190602001805182019190602001805190602001909190505082600090805190602001906200005b9291906200020e565b5060006003819055506200008382620000ab640100000000026200150c176401000000009004565b620000a2816200018e640100000000026200113d176401000000009004565b505050620002bd565b60008090505b81518110156200018a57620000f28282815181101515620000ce57fe5b90602001906020020151620001b86401000000000262001165176401000000009004565b15156200017c5760016002600084848151811015156200010e57fe5b9060200190602002015173ffffffffffffffffffffffffffffffffffffffff1673ffffffffffffffffffffffffffffffffffffffff16815260200190815260200160002060006101000a81548160ff0219169083151502179055506003600081548092919060010191905055505b8080600101915050620000b1565b5050565b60008112158015620001a257506003548113155b1515620001ae57600080fd5b8060018190555050565b6000600260008373ffffffffffffffffffffffffffffffffffffffff1673ffffffffffffffffffffffffffffffffffffffff16815260200190815260200160002060009054906101000a900460ff169050919050565b828054600181600116156101000203166002900490600052602060002090601f016020900481019282601f106200025157805160ff191683800117855562000282565b8280016001018555821562000282579182015b828111156200028157825182559160200191906001019062000264565b5b50905062000291919062000295565b5090565b620002ba91905b80821115620002b65760008160009055506001016200029c565b5090565b90565b61160080620002cd6000396000f3006060604052600436106100af576000357c0100000000000000000000000000000000000000000000000000000000900463ffffffff168063015785c5146100b45780630e2d5d58146100ef578063173825d91461017d5780635d9ec210146101ce5780637065cb48146102095780638de6262e1461025a5780639ace38c214610283578063b090c809146103c6578063dc8452cd1461043b578063ec096f8d14610464578063ee22610b14610501575b600080fd5b34156100bf57600080fd5b6100d5600480803590602001909190505061053c565b604051808215151515815260200191505060405180910390f35b34156100fa57600080fd5b6101026105c9565b6040518080602001828103825283818151815260200191508051906020019080838360005b83811015610142578082015181840152602081019050610127565b50505050905090810190601f16801561016f5780820380516001836020036101000a031916815260200191505b509250505060405180910390f35b341561018857600080fd5b6101b4600480803573ffffffffffffffffffffffffffffffffffffffff16906020019091905050610667565b604051808215151515815260200191505060405180910390f35b34156101d957600080fd5b6101ef6004808035906020019091905050610796565b604051808215151515815260200191505060405180910390f35b341561021457600080fd5b610240600480803573ffffffffffffffffffffffffffffffffffffffff169060200190919050506108fb565b604051808215151515815260200191505060405180910390f35b341561026557600080fd5b61026d610a2c565b6040518082815260200191505060405180910390f35b341561028e57600080fd5b6102a46004808035906020019091905050610a32565b60405180881515151581526020018773ffffffffffffffffffffffffffffffffffffffff1673ffffffffffffffffffffffffffffffffffffffff168152602001868152602001806020018573ffffffffffffffffffffffffffffffffffffffff1673ffffffffffffffffffffffffffffffffffffffff168152602001848152602001831515151581526020018281038252868181546001816001161561010002031660029004815260200191508054600181600116156101000203166002900480156103b15780601f10610386576101008083540402835291602001916103b1565b820191906000526020600020905b81548152906001019060200180831161039457829003601f168201915b50509850505050505050505060405180910390f35b34156103d157600080fd5b610421600480803590602001908201803590602001908080601f01602080910402602001604051908101604052809392919081815260200183838082843782019150505050505091905050610adc565b604051808215151515815260200191505060405180910390f35b341561044657600080fd5b61044e610bfa565b6040518082815260200191505060405180910390f35b341561046f57600080fd5b6104e7600480803573ffffffffffffffffffffffffffffffffffffffff1690602001909190803590602001909190803590602001908201803590602001908080601f01602080910402602001604051908101604052809392919081815260200183838082843782019150505050505091905050610c00565b604051808215151515815260200191505060405180910390f35b341561050c57600080fd5b6105226004808035906020019091905050610f4c565b604051808215151515815260200191505060405180910390f35b60003073ffffffffffffffffffffffffffffffffffffffff163373ffffffffffffffffffffffffffffffffffffffff1614151561057857600080fd5b6105818261113d565b7f538fbb2b538647da64ce766893211e622c865c1506f29cda67e2bb3247e727088242604051808381526020018281526020019250505060405180910390a160019050919050565b60008054600181600116156101000203166002900480601f01602080910402602001604051908101604052809291908181526020018280546001816001161561010002031660029004801561065f5780601f106106345761010080835404028352916020019161065f565b820191906000526020600020905b81548152906001019060200180831161064257829003601f168201915b505050505081565b60003073ffffffffffffffffffffffffffffffffffffffff163373ffffffffffffffffffffffffffffffffffffffff161415156106a357600080fd5b6106ac82611165565b15156106b757600080fd5b6000600260008473ffffffffffffffffffffffffffffffffffffffff1673ffffffffffffffffffffffffffffffffffffffff16815260200190815260200160002060006101000a81548160ff021916908315150217905550600360008154809291906001900391905055507f769fbc2ec8c9a4bc66b4767cd66ac7ca0ca967982b7c375411e03d66bbfb64c28242604051808373ffffffffffffffffffffffffffffffffffffffff1673ffffffffffffffffffffffffffffffffffffffff1681526020018281526020019250505060405180910390a160019050919050565b60006107a133611165565b15156107ac57600080fd5b816004818154811015156107bc57fe5b906000526020600020906007020160000160009054906101000a900460ff1615156107e657600080fd5b6107f083336111bb565b1515156107fc57600080fd5b60048381548110151561080b57fe5b906000526020600020906007020160040160008154809291906001019190505550600160048481548110151561083d57fe5b906000526020600020906007020160050160003373ffffffffffffffffffffffffffffffffffffffff1673ffffffffffffffffffffffffffffffffffffffff16815260200190815260200160002060006101000a81548160ff021916908315150217905550823373ffffffffffffffffffffffffffffffffffffffff167faa2d7c90b922d8f731344d0dd1eb0b0df439b3a9b17b5a1aa55b71103de906ed426040518082815260200191505060405180910390a36001915050919050565b60003073ffffffffffffffffffffffffffffffffffffffff163373ffffffffffffffffffffffffffffffffffffffff1614151561093757600080fd5b8161094181611165565b15151561094d57600080fd5b6001600260008573ffffffffffffffffffffffffffffffffffffffff1673ffffffffffffffffffffffffffffffffffffffff16815260200190815260200160002060006101000a81548160ff0219169083151502179055506003600081548092919060010191905055507f567d314b1f4bef0cf41b5eea6a621ebe9b67dfafe183c591176a3efce5ecc0df8342604051808373ffffffffffffffffffffffffffffffffffffffff1673ffffffffffffffffffffffffffffffffffffffff1681526020018281526020019250505060405180910390a16001915050919050565b60035481565b600481815481101515610a4157fe5b90600052602060002090600702016000915090508060000160009054906101000a900460ff16908060000160019054906101000a900473ffffffffffffffffffffffffffffffffffffffff169080600101549080600201908060030160009054906101000a900473ffffffffffffffffffffffffffffffffffffffff16908060040154908060060160009054906101000a900460ff16905087565b60003073ffffffffffffffffffffffffffffffffffffffff163373ffffffffffffffffffffffffffffffffffffffff16141515610b1857600080fd5b8160009080519060200190610b2e929190611230565b507f38eb669f2aeb5e5acde781a8ab65751e0dc22ac591fd9c43c3251bb433bf465a6000426040518080602001838152602001828103825284818154600181600116156101000203166002900481526020019150805460018160011615610100020316600290048015610be25780601f10610bb757610100808354040283529160200191610be2565b820191906000526020600020905b815481529060010190602001808311610bc557829003601f168201915b5050935050505060405180910390a160019050919050565b60015481565b6000610c0a6112b0565b610c1333611165565b1515610c1e57600080fd5b848484600073ffffffffffffffffffffffffffffffffffffffff168373ffffffffffffffffffffffffffffffffffffffff1614151515610c5d57600080fd5b3073ffffffffffffffffffffffffffffffffffffffff168373ffffffffffffffffffffffffffffffffffffffff161415610ca157600082141515610ca057600080fd5b5b60e0604051908101604052806001151581526020018973ffffffffffffffffffffffffffffffffffffffff1681526020018881526020018781526020013373ffffffffffffffffffffffffffffffffffffffff1681526020016000815260200160001515815250935060048054806001018281610d1e9190611324565b9160005260206000209060070201600086909190915060008201518160000160006101000a81548160ff02191690831515021790555060208201518160000160016101000a81548173ffffffffffffffffffffffffffffffffffffffff021916908373ffffffffffffffffffffffffffffffffffffffff160217905550604082015181600101556060820151816002019080519060200190610dc1929190611356565b5060808201518160030160006101000a81548173ffffffffffffffffffffffffffffffffffffffff021916908373ffffffffffffffffffffffffffffffffffffffff16021790555060a0820151816004015560c08201518160060160006101000a81548160ff0219169083151502179055505050503373ffffffffffffffffffffffffffffffffffffffff167f1f6a5024e4fb970f050b00e832ffd49283cc5e9c877fe5c95ab5b7935881e8ff6001600480549050038a8a8a42604051808681526020018573ffffffffffffffffffffffffffffffffffffffff1673ffffffffffffffffffffffffffffffffffffffff16815260200184815260200180602001838152602001828103825284818151815260200191508051906020019080838360005b83811015610eff578082015181840152602081019050610ee4565b50505050905090810190601f168015610f2c5780820380516001836020036101000a031916815260200191505b50965050505050505060405180910390a260019450505050509392505050565b60008082600154600482815481101515610f6257fe5b90600052602060002090600702016004015412151515610f8157600080fd5b83600481815481101515610f9157fe5b906000526020600020906007020160060160009054906101000a900460ff16151515610fbc57600080fd5b600485815481101515610fcb57fe5b906000526020600020906007020192508260000160019054906101000a900473ffffffffffffffffffffffffffffffffffffffff1673ffffffffffffffffffffffffffffffffffffffff1683600101548460020160405180828054600181600116156101000203166002900480156110845780601f1061105957610100808354040283529160200191611084565b820191906000526020600020905b81548152906001019060200180831161106757829003601f168201915b505091505060006040518083038185876187965a03f19250505015156110a957600080fd5b60016004868154811015156110ba57fe5b906000526020600020906007020160060160006101000a81548160ff021916908315150217905550843373ffffffffffffffffffffffffffffffffffffffff167fa4d5ebb0449261ce79306f80f2182257fbd05668b173a1a5985964c09389d98d426040518082815260200191505060405180910390a360019350505050919050565b6000811215801561115057506003548113155b151561115b57600080fd5b8060018190555050565b6000600260008373ffffffffffffffffffffffffffffffffffffffff1673ffffffffffffffffffffffffffffffffffffffff16815260200190815260200160002060009054906101000a900460ff169050919050565b60006004838154811015156111cc57fe5b906000526020600020906007020160050160008373ffffffffffffffffffffffffffffffffffffffff1673ffffffffffffffffffffffffffffffffffffffff16815260200190815260200160002060009054906101000a900460ff16905092915050565b828054600181600116156101000203166002900490600052602060002090601f016020900481019282601f1061127157805160ff191683800117855561129f565b8280016001018555821561129f579182015b8281111561129e578251825591602001919060010190611283565b5b5090506112ac91906113d6565b5090565b60e060405190810160405280600015158152602001600073ffffffffffffffffffffffffffffffffffffffff168152602001600081526020016112f16113fb565b8152602001600073ffffffffffffffffffffffffffffffffffffffff168152602001600081526020016000151581525090565b81548183558181151161135157600702816007028360005260206000209182019101611350919061140f565b5b505050565b828054600181600116156101000203166002900490600052602060002090601f016020900481019282601f1061139757805160ff19168380011785556113c5565b828001600101855582156113c5579182015b828111156113c45782518255916020019190600101906113a9565b5b5090506113d291906113d6565b5090565b6113f891905b808211156113f45760008160009055506001016113dc565b5090565b90565b602060405190810160405280600081525090565b6114c191905b808211156114bd57600080820160006101000a81549060ff02191690556000820160016101000a81549073ffffffffffffffffffffffffffffffffffffffff0219169055600182016000905560028201600061147191906114c4565b6003820160006101000a81549073ffffffffffffffffffffffffffffffffffffffff021916905560048201600090556006820160006101000a81549060ff021916905550600701611415565b5090565b90565b50805460018160011615610100020316600290046000825580601f106114ea5750611509565b601f01602090049060005260206000209081019061150891906113d6565b5b50565b60008090505b81518110156115d05761153b828281518110151561152c57fe5b90602001906020020151611165565b15156115c357600160026000848481518110151561155557fe5b9060200190602002015173ffffffffffffffffffffffffffffffffffffffff1673ffffffffffffffffffffffffffffffffffffffff16815260200190815260200160002060006101000a81548160ff0219169083151502179055506003600081548092919060010191905055505b8080600101915050611512565b50505600a165627a7a723058208fb571e340316aceb0ace9dbb8f0039deb2cce73bdfc387a54c44822a18601860029",
  "source": "pragma solidity ^0.4.18;\r\n\r\ncontract MultiSigIdentity {\r\n\r\n    bytes public financialData;\r\n    int public required;\r\n    mapping(address=>bool) owners;\r\n    int public activeOwners;\r\n    Transaction[] public transactions;\r\n\r\n\r\n    struct Transaction {\r\n        bool active;\r\n        address to;\r\n        uint value;\r\n        bytes data;\r\n        address creator;\r\n        int signCount;\r\n        mapping(address => bool) signers;\r\n        bool executed;\r\n    }\r\n\r\n    event TransactionCreated(address indexed creator, uint transactionId, address destination, uint256 value, bytes data, uint256 timestamp);\r\n    event TransactionSigned(address indexed signer, uint indexed transactionId, uint256 timestamp);\r\n    event TransactionExecuted(address indexed executor, uint indexed transactionId, uint256 timestamp);\r\n    event RequiredChanged(int required, uint256 timestamp);\r\n    event OwnerAdded(address owner, uint256 timestamp);\r\n    event OwnerRemoved(address owner, uint256 timestamp);\r\n    event ProfileChanged(bytes financialData, uint256 timestamp);\r\n\r\n    modifier onlyWallet() {\r\n        require(msg.sender == address(this));\r\n        _;\r\n    }\r\n\r\n    modifier onlyNewOwner(address owner){\r\n        require(!isOwner(owner));\r\n        _;\r\n    }\r\n\r\n    modifier onlyOwner(){\r\n        require(isOwner(msg.sender));\r\n        _;\r\n    }\r\n\r\n    modifier onlySigned(uint transactionId) {\r\n        require(transactions[transactionId].signCount >= required);\r\n        _;\r\n    }\r\n\r\n    modifier notExecuted(uint transactionId) {\r\n        require(!transactions[transactionId].executed);\r\n        _;\r\n    } \r\n\r\n    modifier validTransaction(address to, uint256 value, bytes data) {\r\n        require(to != address(0));\r\n        if (to == address(this)) {\r\n            require(value == 0);\r\n        }\r\n        _;\r\n    }\r\n\r\n    modifier activeTransaction(uint transactionId) {\r\n        require(transactions[transactionId].active);\r\n        _;\r\n    }\r\n\r\n    function MultiSigIdentity (bytes _financialData, address[] _owners, int _required)\r\n        public \r\n    {\r\n        financialData = _financialData;\r\n        activeOwners = 0;\r\n        setOwners(_owners);\r\n        setRequired(_required);\r\n    }\r\n\r\n    function setOwners(address[] _owners)\r\n        internal\r\n    {\r\n        for (uint i = 0; i < _owners.length; i++) {\r\n            if (!isOwner(_owners[i])) {\r\n                owners[_owners[i]] = true;\r\n                activeOwners++;\r\n            }\r\n        }\r\n    }\r\n\r\n    function addOwner(address newOwner)\r\n        onlyWallet\r\n        onlyNewOwner(newOwner)\r\n        public \r\n        returns(bool)\r\n    {\r\n        owners[newOwner] = true;\r\n        activeOwners++;\r\n        OwnerAdded(newOwner, now);\r\n        return true;\r\n    }\r\n\r\n    function removeOwner(address oldOwner) \r\n        onlyWallet\r\n        public\r\n        returns(bool)\r\n    {\r\n        require(isOwner(oldOwner));\r\n        owners[oldOwner] = false;\r\n        activeOwners--;\r\n        OwnerRemoved(oldOwner, now);\r\n        return true;\r\n    }\r\n\r\n    function changeRequired(int _required) \r\n        onlyWallet \r\n        public\r\n        returns(bool)\r\n    {\r\n        setRequired(_required);\r\n        RequiredChanged(_required, now);\r\n        return true;\r\n    }\r\n\r\n    function setFinancialData(bytes _financialData)\r\n        onlyWallet\r\n        public\r\n        returns(bool)\r\n    {\r\n        financialData = _financialData;\r\n        ProfileChanged(financialData, now);\r\n        return true;\r\n    }\r\n    \r\n    function setRequired(int _required)\r\n        internal\r\n    {\r\n        require(_required >= 0 && _required <= activeOwners);\r\n        required = _required;\r\n    }\r\n\r\n    function addTransaction(address to, uint256 value, bytes data) \r\n        onlyOwner\r\n        validTransaction(to, value, data)\r\n        public\r\n        returns(bool)\r\n    {\r\n        Transaction memory transaction = Transaction(true,to,value,data,msg.sender,0,false);\r\n        transactions.push(transaction);\r\n        TransactionCreated(msg.sender,transactions.length - 1,to,value,data, now);\r\n        return true;\r\n    }\r\n    \r\n    function signTransaction(uint transactionId) \r\n        onlyOwner\r\n        activeTransaction(transactionId) \r\n        public\r\n        returns(bool)\r\n    {\r\n        require(!checkSign(transactionId, msg.sender));\r\n        transactions[transactionId].signCount++;\r\n        transactions[transactionId].signers[msg.sender] = true;\r\n        TransactionSigned(msg.sender, transactionId, now);\r\n        return true;\r\n    }\r\n\r\n    function executeTransaction(uint transactionId) \r\n        onlySigned(transactionId)\r\n        notExecuted(transactionId)\r\n        public \r\n        returns(bool)\r\n    {\r\n        Transaction storage transaction = transactions[transactionId];\r\n        require(transaction.to.call.value(transaction.value)(transaction.data));\r\n        transactions[transactionId].executed = true;\r\n        TransactionExecuted(msg.sender, transactionId, now);\r\n        return true;\r\n    }\r\n\r\n    function isOwner(address _owner) \r\n        view \r\n        internal\r\n        returns(bool)\r\n    {\r\n        return owners[_owner];\r\n    }\r\n\r\n    function checkSign(uint transactionId, address signer)\r\n        view\r\n        internal\r\n        returns(bool)\r\n    {\r\n        return transactions[transactionId].signers[signer];\r\n    }\r\n}",
  "sourcePath": "C:\\workfolder\\swapy-identity-protocol\\contracts\\identity\\MultiSigIdentity.sol",
  "compiler": {
    "name": "solc",
    "version": "0.4.19+commit.c4cbbb05.Emscripten.clang"
  },
  "schemaVersion": "1.0.1",
  "updatedAt": "2018-02-03T18:03:18.268Z"
}